:020000020000FC
:0200000005C039
:10000A00A8C1F894C1E0D0E0E0E0B0E0F0E0A0E000
:10001A0030E040E050E060E03BD170E07093600077
:10002A00709361007093630070936400709366002C
:10003A007093670071E073BF72E079BF7FE97DBF9B
:10004A0077ED77BB78E078BB7894B39BFECF7F2FB0
:10005A007170703009F4FBCF96B3987EB399BA9554
:10006A00B39BB395B73E14F4B7EE80E0BA3114F0FF
:10007A00B9E181E010916B0000916A00A03071F43F
:10008A00803009F4E6D0813049F403950B3221F42B
:10009A0000E0139510936B0000936A00E030A9F416
:1000AA00D43034F4813021F4003211F4D395D1D014
:1000BA00D1305CF0803049F475E17093630035E12A
:1000CA005BE0CED0C6D0E1E0F260E13049F4709155
:1000DA006500703029F4E2E0F4607CE37093670015
:1000EA00E23069F4813059F4123049F4D13009F41C
:1000FA00DBE0D23009F4DCE0D43009F4D8E57F2F14
:10010A007270723049F4803039F4103029F40330B7
:10011A001CF005310CF475CF709169007D1709F058
:10012A00B7D010916E0020916F007F2F74707430D9
:10013A00B1F5709165007030D1F4709171007093CF
:10014A00640070917200709363001227009170002E
:10015A00003069F0F7D0702F7223713044F001300B
:10016A000CF0202700301CF470E81727EBD07091B0
:10017A006800703099F470916D00713064F07A956E
:10018A0070936D00703039F4DA95D1300CF4DFEFEA
:10019A00DA300CF0DFEF7CE3709367009062109323
:1001AA006E0020936F000C2F0123023009F4956032
:1001BA00043009F49061083009F49160003109F4BF
:1001CA0094610091660010916700209168004ED0FA
:1001DA002093680010936700009366000091630003
:1001EA00109164002091650041D02093650010931E
:1001FA0064000093630000916000109161002091F7
:10020A00620034D020936200109361000093600072
:10021A00203069F470916C007A9570936C0071309B
:10022A000CF01ED0703019F4DF3F09F4EACE10301A
:10023A0064F0013054F0161719F4051709F4F77F22
:10024A007F2F7870783009F49260986098BBFE7FAF
:10025A00FECE10E010936B0000E000936A00089550
:10026A004093610030936000F860089521E0A03067
:10027A0071F40A95003019F4103009F420E00130C5
:10028A0034F40BE21A95103014F400E010E00895EB
:10029A00D0936900DF3F21F435E15BE0FB7F77E033
:1002AA00DB3014F03AE055E03F934F935F9300E060
:1002BA0010E020E030E040E050E0D13029F412E0D4
:1002CA0022E03BE25FE071E0D23029F416E024E05C
:1002DA003BE25FE072E0D33029F41EE028E03BE223
:1002EA005FE073E0D43029F41EE120E13BE25FE0F5
:1002FA0074E0DB3031F412E026E009E835E155E03C
:10030A0071E0DC3031F412E026E001E93AE05AE02B
:10031A0072E0D83521F412E122E13BE274E0009365
:10032A00700010936E0020936F0030937200409318
:10033A00710050936D0070936C005F914F913F91E3
:10034A008FDF089511300CF0220F10300CF426952F
:10035A0008957F93EF93EFB770E072BFCC0FC0326E
:10036A0009F4C2E0A395A73609F4A0E0F160EFBF53
:06037A00EF917F91189540
:00000001FF
