:020000020000FC
:0200000005C039
:10000A00B6C1F894C1E0D0E0E0E0B0E0F0E0A0E0F2
:10001A0030E040E050E060E047D170E0709360006B
:10002A00709361007093630070936400709366002C
:10003A007093670071E073BF72E079BF7FE97DBF9B
:10004A0077ED77BB78E078BB33E252E115D1D8E59A
:10005A00F46071E07093670071E07093680005D1F5
:10006A00E3E0F26078947F2F7170703009F4FBCF6F
:10007A0096B3987EB399BA95B39BB395B73E14F4E9
:10008A00B7EE80E0BA3114F0B9E181E010916B006B
:10009A0000916A00A03071F4803009F4E6D0813012
:1000AA0049F40395063421F400E0139510936B008C
:1000BA0000936A00E030A9F4D43034F4813021F49A
:1000CA00043311F4D395D1D0D1305CF0803049F4A7
:1000DA0073E27093630033E252E1CED0C6D0E1E01E
:1000EA00F260E13049F470916500703029F4E2E081
:1000FA00F46071E070936700E23069F4813059F47A
:10010A00123049F4D13009F4DBE0D23009F4DCE0F2
:10011A00D43009F4D8E57F2F7270723049F48030F8
:10012A0039F4103029F403301CF003320CF469CF8F
:10013A00709169007D1709F0B7D010916E00209177
:10014A006F007F2F74707430B1F570916500703054
:10015A00D1F4709171007093640070917200709381
:10016A006300122700917000003069F0F9D0702FF7
:10017A007223713044F001300CF0202700301CF457
:10018A0070E81727EDD070916800703099F470917B
:10019A006D007A9570936D00703049F4DA95D1301C
:1001AA000CF4DFEF7F2F7071703109F4DFEF71E02B
:1001BA0070936700906210936E0020936F000C2F6B
:1001CA000123023009F49560043009F49061083083
:1001DA0009F49160003109F494610091660010916C
:1001EA006700209168004ED0209368001093670042
:1001FA0000936600009163001091640020916500ED
:10020A0041D020936500109364000093630000912D
:10021A006000109161002091620034D02093620046
:10022A001093610000936000203069F470916C00B3
:10023A007A9570936C0071300CF01ED0703019F4FE
:10024A00DF3F09F4DECE103064F0013054F01617A7
:10025A0019F4051709F4F77F7F2F7870783009F4BD
:10026A009260986098BBFE7FFECE10E010936B0000
:10027A0000E000936A0008954093610030936000A3
:10028A00F860089521E0A03071F40A95003019F45D
:10029A00103009F420E0013034F406E41A951030E5
:1002AA0014F400E010E00895D0936900DF3F21F4D0
:1002BA0030E158E0FB7F77E0DB3014F030E158E0C2
:1002CA003F934F935F9300E010E020E030E040E07E
:1002DA0050E0D13029F412E022E036E454E071E033
:1002EA00D23029F416E024E036E454E072E0D33048
:1002FA0029F41EE028E036E454E073E0D43029F40F
:10030A001EE120E136E454E074E0DB3039F412E017
:10031A0026E009E833E256E0F06171E0DC3039F4B6
:10032A0012E026E001E931E156E0F06172E0D835E9
:10033A0021F412E122E136E474E000937000109394
:10034A006E0020936F0030937200409371005093B7
:10035A006D0070936C005F914F913F918DDF08950E
:10036A0011300CF0220F10300CF4269508957F936B
:10037A00EF93EFB770E072BFCC0FC03209F4C2E05E
:10038A00A395A03409F4A0E0F160EFBFEF917F914B
:02039A001895B4
:00000001FF
